{
  "address": "0x5FbDB2315678afecb367f032d93F642f64180aa3",
  "abi": [
    {
      "inputs": [
        {
          "internalType": "string",
          "name": "_id",
          "type": "string"
        },
        {
          "internalType": "bytes",
          "name": "_hash",
          "type": "bytes"
        }
      ],
      "name": "addAnchor",
      "outputs": [],
      "stateMutability": "nonpayable",
      "type": "function"
    },
    {
      "inputs": [
        {
          "internalType": "string",
          "name": "_id",
          "type": "string"
        }
      ],
      "name": "getAnchor",
      "outputs": [
        {
          "internalType": "bytes",
          "name": "",
          "type": "bytes"
        }
      ],
      "stateMutability": "view",
      "type": "function"
    }
  ],
  "transactionHash": "0xfd784eda762c1a1369756357d4c0f6bbf6fda12c676f79f9d58ca9dcfa7df90d",
  "args": [],
  "numDeployments": 1,
  "solcInputHash": "919d576365ddc1e71c66436dd7706de6",
  "bytecode": "0x608060405234801561001057600080fd5b50610845806100206000396000f3fe608060405234801561001057600080fd5b50600436106100365760003560e01c80630b5729d41461003b578063db530b681461006b575b600080fd5b6100556004803603810190610050919061045c565b610087565b604051610062919061052d565b60405180910390f35b610085600480360381019061008091906105f0565b610192565b005b60606000808360405161009a91906106af565b9081526020016040518091039020905060008160000180546100bb906106f5565b9050036100fd576040517f08c379a00000000000000000000000000000000000000000000000000000000081526004016100f490610783565b60405180910390fd5b80600001805461010c906106f5565b80601f0160208091040260200160405190810160405280929190818152602001828054610138906106f5565b80156101855780601f1061015a57610100808354040283529160200191610185565b820191906000526020600020905b81548152906001019060200180831161016857829003601f168201915b5050505050915050919050565b600080836040516101a391906106af565b9081526020016040518091039020905060008160000180546101c4906106f5565b90501115610207576040517f08c379a00000000000000000000000000000000000000000000000000000000081526004016101fe906107ef565b60405180910390fd5b600060405180602001604052808481525090508060008560405161022b91906106af565b9081526020016040518091039020600082015181600001908051906020019061025592919061025f565b5090505050505050565b82805461026b906106f5565b90600052602060002090601f01602090048101928261028d57600085556102d4565b82601f106102a657805160ff19168380011785556102d4565b828001600101855582156102d4579182015b828111156102d35782518255916020019190600101906102b8565b5b5090506102e191906102e5565b5090565b5b808211156102fe5760008160009055506001016102e6565b5090565b6000604051905090565b600080fd5b600080fd5b600080fd5b600080fd5b6000601f19601f8301169050919050565b7f4e487b7100000000000000000000000000000000000000000000000000000000600052604160045260246000fd5b61036982610320565b810181811067ffffffffffffffff8211171561038857610387610331565b5b80604052505050565b600061039b610302565b90506103a78282610360565b919050565b600067ffffffffffffffff8211156103c7576103c6610331565b5b6103d082610320565b9050602081019050919050565b82818337600083830152505050565b60006103ff6103fa846103ac565b610391565b90508281526020810184848401111561041b5761041a61031b565b5b6104268482856103dd565b509392505050565b600082601f83011261044357610442610316565b5b81356104538482602086016103ec565b91505092915050565b6000602082840312156104725761047161030c565b5b600082013567ffffffffffffffff8111156104905761048f610311565b5b61049c8482850161042e565b91505092915050565b600081519050919050565b600082825260208201905092915050565b60005b838110156104df5780820151818401526020810190506104c4565b838111156104ee576000848401525b50505050565b60006104ff826104a5565b61050981856104b0565b93506105198185602086016104c1565b61052281610320565b840191505092915050565b6000602082019050818103600083015261054781846104f4565b905092915050565b600067ffffffffffffffff82111561056a57610569610331565b5b61057382610320565b9050602081019050919050565b600061059361058e8461054f565b610391565b9050828152602081018484840111156105af576105ae61031b565b5b6105ba8482856103dd565b509392505050565b600082601f8301126105d7576105d6610316565b5b81356105e7848260208601610580565b91505092915050565b600080604083850312156106075761060661030c565b5b600083013567ffffffffffffffff81111561062557610624610311565b5b6106318582860161042e565b925050602083013567ffffffffffffffff81111561065257610651610311565b5b61065e858286016105c2565b9150509250929050565b600081519050919050565b600081905092915050565b600061068982610668565b6106938185610673565b93506106a38185602086016104c1565b80840191505092915050565b60006106bb828461067e565b915081905092915050565b7f4e487b7100000000000000000000000000000000000000000000000000000000600052602260045260246000fd5b6000600282049050600182168061070d57607f821691505b6020821081036107205761071f6106c6565b5b50919050565b600082825260208201905092915050565b7f416e63686f72206e6f7420666f756e6400000000000000000000000000000000600082015250565b600061076d601083610726565b915061077882610737565b602082019050919050565b6000602082019050818103600083015261079c81610760565b9050919050565b7f416e63686f7220696420616c7265616479206578697374730000000000000000600082015250565b60006107d9601883610726565b91506107e4826107a3565b602082019050919050565b60006020820190508181036000830152610808816107cc565b905091905056fea264697066735822122002fc3db0f130a81c7bb1c5353feda4a1afcd43b716b5409de272fe230f2d9ae964736f6c634300080d0033",
  "devdoc": {
    "kind": "dev",
    "methods": {},
    "version": 1
  },
  "userdoc": {
    "kind": "user",
    "methods": {},
    "version": 1
  },
  "storageLayout": {
    "storage": [
      {
        "astId": 9,
        "contract": "contracts/GeodataAnchor.sol:GeodataAnchor",
        "label": "anchors",
        "offset": 0,
        "slot": "0",
        "type": "t_mapping(t_string_memory_ptr,t_struct(Anchor)4_storage)"
      }
    ],
    "types": {
      "t_bytes_storage": {
        "encoding": "bytes",
        "label": "bytes",
        "numberOfBytes": "32"
      },
      "t_mapping(t_string_memory_ptr,t_struct(Anchor)4_storage)": {
        "encoding": "mapping",
        "key": "t_string_memory_ptr",
        "label": "mapping(string => struct GeodataAnchor.Anchor)",
        "numberOfBytes": "32",
        "value": "t_struct(Anchor)4_storage"
      },
      "t_string_memory_ptr": {
        "encoding": "bytes",
        "label": "string",
        "numberOfBytes": "32"
      },
      "t_struct(Anchor)4_storage": {
        "encoding": "inplace",
        "label": "struct GeodataAnchor.Anchor",
        "members": [
          {
            "astId": 3,
            "contract": "contracts/GeodataAnchor.sol:GeodataAnchor",
            "label": "hash",
            "offset": 0,
            "slot": "0",
            "type": "t_bytes_storage"
          }
        ],
        "numberOfBytes": "32"
      }
    }
  }
}