{
  "address": "0x5FbDB2315678afecb367f032d93F642f64180aa3",
  "abi": [
    {
      "inputs": [
        {
          "internalType": "string",
          "name": "_id",
          "type": "string"
        },
        {
          "internalType": "bytes32",
          "name": "_hash",
          "type": "bytes32"
        }
      ],
      "name": "addAnchor",
      "outputs": [],
      "stateMutability": "nonpayable",
      "type": "function"
    }
  ],
  "transactionHash": "0xb522c7899e9aa5062c680badb4b2314c199b03e62996f5242c7a5e23708be93d",
  "args": [],
  "numDeployments": 1,
  "solcInputHash": "6b0e744f806d8b0240a67ef4aaa83934",
  "bytecode": "0x608060405234801561001057600080fd5b5061042b806100206000396000f3fe608060405234801561001057600080fd5b506004361061002b5760003560e01c8063af9f815f14610030575b600080fd5b61004a6004803603810190610045919061028b565b61004c565b005b6000808360405161005d9190610361565b908152602001604051809103902090506000801b8160000154146100b6576040517f08c379a00000000000000000000000000000000000000000000000000000000081526004016100ad906103d5565b60405180910390fd5b60006040518060200160405280848152509050806000856040516100da9190610361565b90815260200160405180910390206000820151816000015590505050505050565b6000604051905090565b600080fd5b600080fd5b600080fd5b600080fd5b6000601f19601f8301169050919050565b7f4e487b7100000000000000000000000000000000000000000000000000000000600052604160045260246000fd5b61016282610119565b810181811067ffffffffffffffff821117156101815761018061012a565b5b80604052505050565b60006101946100fb565b90506101a08282610159565b919050565b600067ffffffffffffffff8211156101c0576101bf61012a565b5b6101c982610119565b9050602081019050919050565b82818337600083830152505050565b60006101f86101f3846101a5565b61018a565b90508281526020810184848401111561021457610213610114565b5b61021f8482856101d6565b509392505050565b600082601f83011261023c5761023b61010f565b5b813561024c8482602086016101e5565b91505092915050565b6000819050919050565b61026881610255565b811461027357600080fd5b50565b6000813590506102858161025f565b92915050565b600080604083850312156102a2576102a1610105565b5b600083013567ffffffffffffffff8111156102c0576102bf61010a565b5b6102cc85828601610227565b92505060206102dd85828601610276565b9150509250929050565b600081519050919050565b600081905092915050565b60005b8381101561031b578082015181840152602081019050610300565b8381111561032a576000848401525b50505050565b600061033b826102e7565b61034581856102f2565b93506103558185602086016102fd565b80840191505092915050565b600061036d8284610330565b915081905092915050565b600082825260208201905092915050565b7f416e63686f7220696420616c7265616479206578697374730000000000000000600082015250565b60006103bf601883610378565b91506103ca82610389565b602082019050919050565b600060208201905081810360008301526103ee816103b2565b905091905056fea264697066735822122074a8098b0f6949915125ac6ac0d568aeb43e3053c02b8b45a8f0196d52304c1c64736f6c634300080d0033",
  "devdoc": {
    "kind": "dev",
    "methods": {},
    "version": 1
  },
  "userdoc": {
    "kind": "user",
    "methods": {},
    "version": 1
  },
  "storageLayout": {
    "storage": [
      {
        "astId": 9,
        "contract": "contracts/GeodataAnchor.sol:GeodataAnchor",
        "label": "anchors",
        "offset": 0,
        "slot": "0",
        "type": "t_mapping(t_string_memory_ptr,t_struct(Anchor)4_storage)"
      }
    ],
    "types": {
      "t_bytes32": {
        "encoding": "inplace",
        "label": "bytes32",
        "numberOfBytes": "32"
      },
      "t_mapping(t_string_memory_ptr,t_struct(Anchor)4_storage)": {
        "encoding": "mapping",
        "key": "t_string_memory_ptr",
        "label": "mapping(string => struct GeodataAnchor.Anchor)",
        "numberOfBytes": "32",
        "value": "t_struct(Anchor)4_storage"
      },
      "t_string_memory_ptr": {
        "encoding": "bytes",
        "label": "string",
        "numberOfBytes": "32"
      },
      "t_struct(Anchor)4_storage": {
        "encoding": "inplace",
        "label": "struct GeodataAnchor.Anchor",
        "members": [
          {
            "astId": 3,
            "contract": "contracts/GeodataAnchor.sol:GeodataAnchor",
            "label": "hash",
            "offset": 0,
            "slot": "0",
            "type": "t_bytes32"
          }
        ],
        "numberOfBytes": "32"
      }
    }
  }
}