{
  "address": "0x5FbDB2315678afecb367f032d93F642f64180aa3",
  "abi": [
    {
      "inputs": [
        {
          "internalType": "string",
          "name": "_id",
          "type": "string"
        },
        {
          "internalType": "bytes",
          "name": "_hash",
          "type": "bytes"
        }
      ],
      "name": "addAnchor",
      "outputs": [],
      "stateMutability": "nonpayable",
      "type": "function"
    }
  ],
  "transactionHash": "0xe139dabf52a477c23360cfde8765493ec17f4b762f65fa69938aeb72918975ce",
  "args": [],
  "numDeployments": 1,
  "solcInputHash": "82cd3041e6633d7c659d6cdbf7f3f3d5",
  "bytecode": "0x608060405234801561001057600080fd5b506105d3806100206000396000f3fe608060405234801561001057600080fd5b506004361061002b5760003560e01c8063db530b6814610030575b600080fd5b61004a600480360381019061004591906103b7565b61004c565b005b6000808360405161005d91906104a9565b90815260200160405180910390209050600081600001805461007e906104ef565b905011156100c1576040517f08c379a00000000000000000000000000000000000000000000000000000000081526004016100b89061057d565b60405180910390fd5b60006040518060200160405280848152509050806000856040516100e591906104a9565b9081526020016040518091039020600082015181600001908051906020019061010f929190610119565b5090505050505050565b828054610125906104ef565b90600052602060002090601f016020900481019282610147576000855561018e565b82601f1061016057805160ff191683800117855561018e565b8280016001018555821561018e579182015b8281111561018d578251825591602001919060010190610172565b5b50905061019b919061019f565b5090565b5b808211156101b85760008160009055506001016101a0565b5090565b6000604051905090565b600080fd5b600080fd5b600080fd5b600080fd5b6000601f19601f8301169050919050565b7f4e487b7100000000000000000000000000000000000000000000000000000000600052604160045260246000fd5b610223826101da565b810181811067ffffffffffffffff82111715610242576102416101eb565b5b80604052505050565b60006102556101bc565b9050610261828261021a565b919050565b600067ffffffffffffffff821115610281576102806101eb565b5b61028a826101da565b9050602081019050919050565b82818337600083830152505050565b60006102b96102b484610266565b61024b565b9050828152602081018484840111156102d5576102d46101d5565b5b6102e0848285610297565b509392505050565b600082601f8301126102fd576102fc6101d0565b5b813561030d8482602086016102a6565b91505092915050565b600067ffffffffffffffff821115610331576103306101eb565b5b61033a826101da565b9050602081019050919050565b600061035a61035584610316565b61024b565b905082815260208101848484011115610376576103756101d5565b5b610381848285610297565b509392505050565b600082601f83011261039e5761039d6101d0565b5b81356103ae848260208601610347565b91505092915050565b600080604083850312156103ce576103cd6101c6565b5b600083013567ffffffffffffffff8111156103ec576103eb6101cb565b5b6103f8858286016102e8565b925050602083013567ffffffffffffffff811115610419576104186101cb565b5b61042585828601610389565b9150509250929050565b600081519050919050565b600081905092915050565b60005b83811015610463578082015181840152602081019050610448565b83811115610472576000848401525b50505050565b60006104838261042f565b61048d818561043a565b935061049d818560208601610445565b80840191505092915050565b60006104b58284610478565b915081905092915050565b7f4e487b7100000000000000000000000000000000000000000000000000000000600052602260045260246000fd5b6000600282049050600182168061050757607f821691505b60208210810361051a576105196104c0565b5b50919050565b600082825260208201905092915050565b7f416e63686f7220696420616c7265616479206578697374730000000000000000600082015250565b6000610567601883610520565b915061057282610531565b602082019050919050565b600060208201905081810360008301526105968161055a565b905091905056fea2646970667358221220a7e1bdb48827e2da25bb310b71ff8f458765c645081ea88e88003e112112f07d64736f6c634300080d0033",
  "devdoc": {
    "kind": "dev",
    "methods": {},
    "version": 1
  },
  "userdoc": {
    "kind": "user",
    "methods": {},
    "version": 1
  },
  "storageLayout": {
    "storage": [
      {
        "astId": 9,
        "contract": "contracts/GeodataAnchor.sol:GeodataAnchor",
        "label": "anchors",
        "offset": 0,
        "slot": "0",
        "type": "t_mapping(t_string_memory_ptr,t_struct(Anchor)4_storage)"
      }
    ],
    "types": {
      "t_bytes_storage": {
        "encoding": "bytes",
        "label": "bytes",
        "numberOfBytes": "32"
      },
      "t_mapping(t_string_memory_ptr,t_struct(Anchor)4_storage)": {
        "encoding": "mapping",
        "key": "t_string_memory_ptr",
        "label": "mapping(string => struct GeodataAnchor.Anchor)",
        "numberOfBytes": "32",
        "value": "t_struct(Anchor)4_storage"
      },
      "t_string_memory_ptr": {
        "encoding": "bytes",
        "label": "string",
        "numberOfBytes": "32"
      },
      "t_struct(Anchor)4_storage": {
        "encoding": "inplace",
        "label": "struct GeodataAnchor.Anchor",
        "members": [
          {
            "astId": 3,
            "contract": "contracts/GeodataAnchor.sol:GeodataAnchor",
            "label": "hash",
            "offset": 0,
            "slot": "0",
            "type": "t_bytes_storage"
          }
        ],
        "numberOfBytes": "32"
      }
    }
  }
}